{
  "contractName": "WhitelistedPOE",
  "abi": [
    {
      "inputs": [],
      "payable": false,
      "stateMutability": "nonpayable",
      "type": "constructor"
    },
    {
      "constant": false,
      "inputs": [
        {
          "name": "_addr",
          "type": "address"
        }
      ],
      "name": "addAddressToWhitelist",
      "outputs": [],
      "payable": false,
      "stateMutability": "nonpayable",
      "type": "function"
    },
    {
      "constant": false,
      "inputs": [
        {
          "name": "_addr",
          "type": "address"
        }
      ],
      "name": "removeAddressFromWhitelist",
      "outputs": [],
      "payable": false,
      "stateMutability": "nonpayable",
      "type": "function"
    },
    {
      "constant": true,
      "inputs": [
        {
          "name": "_addr",
          "type": "address"
        }
      ],
      "name": "isInWhitelist",
      "outputs": [
        {
          "name": "",
          "type": "bool"
        }
      ],
      "payable": false,
      "stateMutability": "view",
      "type": "function"
    },
    {
      "constant": false,
      "inputs": [
        {
          "name": "_hash",
          "type": "string"
        }
      ],
      "name": "setDocumentHash",
      "outputs": [],
      "payable": false,
      "stateMutability": "nonpayable",
      "type": "function"
    },
    {
      "constant": true,
      "inputs": [],
      "name": "getDocumentHash",
      "outputs": [
        {
          "name": "",
          "type": "string"
        }
      ],
      "payable": false,
      "stateMutability": "view",
      "type": "function"
    }
  ],
  "bytecode": "0x608060405260206040519081016040528060008152506000908051906020019061002a929190610094565b5034801561003757600080fd5b5060018060003373ffffffffffffffffffffffffffffffffffffffff1673ffffffffffffffffffffffffffffffffffffffff16815260200190815260200160002060006101000a81548160ff021916908315150217905550610139565b828054600181600116156101000203166002900490600052602060002090601f016020900481019282601f106100d557805160ff1916838001178555610103565b82800160010185558215610103579182015b828111156101025782518255916020019190600101906100e7565b5b5090506101109190610114565b5090565b61013691905b8082111561013257600081600090555060010161011a565b5090565b90565b6105dd806101486000396000f30060806040526004361061006d576000357c0100000000000000000000000000000000000000000000000000000000900463ffffffff16806309fd821214610072578063286dd3f5146100cd5780632aa85c75146101105780632b43da3a146101a05780637b9417c814610209575b600080fd5b34801561007e57600080fd5b506100b3600480360381019080803573ffffffffffffffffffffffffffffffffffffffff16906020019092919050505061024c565b604051808215151515815260200191505060405180910390f35b3480156100d957600080fd5b5061010e600480360381019080803573ffffffffffffffffffffffffffffffffffffffff1690602001909291905050506102a2565b005b34801561011c57600080fd5b50610125610350565b6040518080602001828103825283818151815260200191508051906020019080838360005b8381101561016557808201518184015260208101905061014a565b50505050905090810190601f1680156101925780820380516001836020036101000a031916815260200191505b509250505060405180910390f35b3480156101ac57600080fd5b50610207600480360381019080803590602001908201803590602001908080601f01602080910402602001604051908101604052809392919081815260200183838082843782019150505050505091929192905050506103f2565b005b34801561021557600080fd5b5061024a600480360381019080803573ffffffffffffffffffffffffffffffffffffffff16906020019092919050505061045f565b005b6000600160008373ffffffffffffffffffffffffffffffffffffffff1673ffffffffffffffffffffffffffffffffffffffff16815260200190815260200160002060009054906101000a900460ff169050919050565b600160003373ffffffffffffffffffffffffffffffffffffffff1673ffffffffffffffffffffffffffffffffffffffff16815260200190815260200160002060009054906101000a900460ff161561034d576000600160008373ffffffffffffffffffffffffffffffffffffffff1673ffffffffffffffffffffffffffffffffffffffff16815260200190815260200160002060006101000a81548160ff0219169083151502179055505b50565b606060008054600181600116156101000203166002900480601f0160208091040260200160405190810160405280929190818152602001828054600181600116156101000203166002900480156103e85780601f106103bd576101008083540402835291602001916103e8565b820191906000526020600020905b8154815290600101906020018083116103cb57829003601f168201915b5050505050905090565b600160003373ffffffffffffffffffffffffffffffffffffffff1673ffffffffffffffffffffffffffffffffffffffff16815260200190815260200160002060009054906101000a900460ff161561045c57806000908051906020019061045a92919061050c565b505b50565b600160003373ffffffffffffffffffffffffffffffffffffffff1673ffffffffffffffffffffffffffffffffffffffff16815260200190815260200160002060009054906101000a900460ff16156105095760018060008373ffffffffffffffffffffffffffffffffffffffff1673ffffffffffffffffffffffffffffffffffffffff16815260200190815260200160002060006101000a81548160ff0219169083151502179055505b50565b828054600181600116156101000203166002900490600052602060002090601f016020900481019282601f1061054d57805160ff191683800117855561057b565b8280016001018555821561057b579182015b8281111561057a57825182559160200191906001019061055f565b5b509050610588919061058c565b5090565b6105ae91905b808211156105aa576000816000905550600101610592565b5090565b905600a165627a7a72305820bf89b27acb7548b9d8d05179fdeca774ffdc4e0397133fe150c861eb39e6e0360029",
  "source": "pragma solidity ^0.4.25;\n\ncontract WhitelistedPOE {\n    \n    string documentHash = \"\";\n    mapping(address => bool) whitelist;\n    \n    constructor() public {\n        whitelist[msg.sender] = true;\n    }\n    \n    function addAddressToWhitelist(address _addr) public\n    {\n        if (whitelist[msg.sender])\n            whitelist[_addr] = true;\n    }\n    \n    function removeAddressFromWhitelist(address _addr) public\n    {\n        if (whitelist[msg.sender])\n            whitelist[_addr] = false;\n    }\n    \n    function isInWhitelist(address _addr) public view returns (bool)\n    {\n        return whitelist[_addr];\n    }\n    \n    function setDocumentHash(string memory _hash) public {\n        if (whitelist[msg.sender])\n        {\n            documentHash = _hash;\n        }\n    }\n    \n    function getDocumentHash() public view returns (string memory) {\n        return documentHash;\n    }\n    \n}",
  "sourcePath": "/Users/sebastian/Documents/Robots/TPFinalRobots/contracts/WhitelistedPOE.sol",
  "compiler": {
    "name": "solc",
    "version": "0.4.25+commit.59dbf8f1.Emscripten.clang"
  },
  "schemaVersion": "2.0.2",
  "updatedAt": "2019-01-10T00:06:51.317Z"
}